:020000040000FA
:100000000C94E9070C9411080C9411080C94110835
:100010000C9411080C9411080C9411080C941108FC
:100020000C9411080C9411080C9411080C941108EC
:100030000C9411080C9411080C9411080C941108DC
:100040000C942E180C9411080C949E180C9478188B
:100050000C9411080C9411080C9411080C941108BC
:100060000C94D0180C94110807634236B79BD8A79C
:100070001A39685618AEBAAB558C1D3CB7CC5763CD
:10008000BD6DEDFD753EF6177231BF000000803F7B
:1000900008000000BE922449123EABAAAA2ABECD97
:1000A000CCCC4C3E00000080BEABAAAAAA3E000009
:1000B0000000BF000000803F000000000008417801
:1000C000D3BB4387D1133D190E3CC3BD4282AD2B38
:1000D0003E68EC8276BED98FE1A93E4C80EFFFBE30
:1000E00001C4FF7F3F000000000000407A10F35A77
:1000F00000A0724E18090010A5D4E80000E8764868
:10010000170000E40B54020000CA9A3B000000E113
:10011000F505000080969800000040420F000000A6
:10012000A08601000000102700000000E803000086
:1001300000006400000000000A0000000000010050
:10014000000000002C76D888DC674F0823DFC1DF71
:10015000AE59E1B1B796E5E3E453C63AE651997674
:1001600096E8E6C28426EB898C9B62ED407C6FFCAE
:10017000EFBC9C9F40F2BAA56FA5F490055A2AF7F0
:100180005C936B6CF9676DC11BFCE0E40D47FEF5F9
:1001900020E6B500D0ED902E030094357705008061
:1001A000841E080000204E0A000000C80C333333C0
:1001B000330F986E12831141EF8D2114893BE65560
:1001C00016CFFEE6DB18D1844B381BF77C1D901D43
:1001D000A4BBE424203284725E228100C9F124ECA5
:1001E000A1E53D27455252004F4B004572726F7298
:1001F0002028666F7572746829203D200050726552
:1002000073737572652028666F7572746829203D56
:10021000200054656D702028666F757274682920FF
:100220003D2000726573756C742028666F7572745A
:100230006829203D20006432207468697264203D82
:10024000203078006431207468697264203D203069
:1002500078006432207365636F6E64203D203078CF
:10026000006431207365636F6E64203D2030780038
:100270006432206669727374203D203078006431E6
:10028000206669727374203D203078004336203D2B
:10029000203078004335203D203078004334203D25
:1002A000203078004333203D203078004332203D19
:1002B000203078004331203D20307800466F756E45
:1002C00064204D41583137303438207769746820C4
:1002D000436869702049443A20307800436F756C58
:1002E000646E27742066696E64204164616672756D
:1002F0006974204D415831373034383F204D616B9F
:10030000652073757265206120626174746572790D
:1003100020697320706C756767656420696E2100C1
:1003200000000000230026002900000000000080DB
:10033000C0E0E0F0F0F8F8F8F8F8F8F8F8F8F8F0BD
:10034000F0E0E0C080000000000000C0F8FCFFFF0B
:10035000FFFF1F0703010000000000000000010371
:100360008FFFFFFFFFFEFCE00000F8FFFFFFFFFF35
:10037000FF000000000080C0E0F0F0F8FCFE7E3FCF
:100380001F1FFFFFFFFFFFFFFE001FFFFFFFFFFF1D
:10039000FFFCFC7E7F3F1F0F0F07030100000000E2
:1003A0000000FFFFFFFFFFFF3F0000030F3FFFFFC5
:1003B000FFFFFCF0C0C080808080808080C0C0F0E3
:1003C000F8FFFFFF7F3F0F03000000000000000167
:1003D000030307070F0F0F0F0F0F0F0F0F0F0F075D
:1003E0000703010000000000000000000000000002
:1003F0000080C0C0E0E0F0F0F8F8F8F8F800000085
:100400000000000000000000000000041C7E7E3F91
:100410001F1F0F0F070707FFFFFFFFFFFF00000071
:1004200000000000000000000000000000000000CC
:1004300000000000000000FFFFFFFFFFFF000000C2
:1004400000000000000000000000000000000000AC
:1004500000000000000000FFFFFFFFFFFF000000A2
:10046000000000000000000000000000E0E0E0E00C
:10047000E0E0E0E0E0E0E0FFFFFFFFFFFFE0E0E0C2
:10048000E0E0E0E0E0E00000000000000F0F0F0FF0
:100490000F0F0F0F0F0F0F0F0F0F0F0F0F0F0F0F6C
:1004A0000F0F0F0F0F0F00000000000080C0C0E012
:1004B000F0F0F0F8F8F8F8F8F8F8F8F8F8F8F0F0E4
:1004C000E0C0800000000000000000000103070FF2
:1004D00007030301010101010101010307BFFFFF40
:1004E000FFFFFFFEF0000000000000000000000021
:1004F0000000000000000000000080C0F0FFFFFFCF
:10050000FFFF3F0F0100000000000000000000009E
:1005100000000080C0E0F0F8FEFF7F3F1F0F0703E0
:10052000010000000000000000000000C0E0F0F842
:10053000FCFEFFFFFFEFE7E3E1E0E0E0E0E0E0E00A
:10054000E0E0E0E0E0E00000000000000F0F0F0F2F
:100550000F0F0F0F0F0F0F0F0F0F0F0F0F0F0F0FAB
:100560000F0F0F0F0F0F00000000000000F8F878C9
:100570007C7C7C7C7C7C7C7C7C7C7CFCFCF8F8F04F
:10058000F0E0C000000000000000000000000000DB
:1005900000000000000000000000000001FFFFFF5D
:1005A000FFFFFF7F000000000000000000000000CF
:1005B00000F8F8F8F8F8F8F8F8F8FCFCFFFFDFCFDF
:1005C0008783010000000000000000000000000020
:1005D00000010101010101010101010303070FFFF6
:1005E000FFFFFFFFFEF8000000000000C0C0C0C019
:1005F000C0C0C0C0C0C0C0C0C0C0C0E0E0F0F8FF14
:10060000FFFF7F3F1F070000000000000F0F0F0FCC
:100610000F0F0F0F0707070707070707030303015C
:1006200001000000000000000000000000000000C9
:100630000000000000000080E0F0F8F8F8F8F8F89A
:10064000F8F8F800000000000000000000000000C2
:10065000000080C0F0FCFEFF7F3F0F0703FFFFFF9D
:10066000FFFFFF0000000000000000000080C0F05D
:10067000FCFEFF7F3F0F07010000000000FFFFFFAF
:10068000FFFFFF00000000000000F0F8FEFFFFFF8A
:10069000EFE7E1E0E0E0E0E0E0E0E0E0E0FFFFFFE6
:1006A000FFFFFFE0E0E0E0E0E0000F0F0F0F0F0FB3
:1006B0000F0F0F0F0F0F0F0F0F0F0F0F0FFFFFFF7A
:1006C000FFFFFF0F0F0F0F0F0F00000000000000D3
:1006D000000000000000000000000000000F0F0FED
:1006E0000F0F0F00000000000000000000FCFCFCE9
:1006F000FCFCFCFCFCFCFCFCFCFCFCFCFCFCFCFC3A
:10070000FCFCFCFC000000000000000000FFFFFFFC
:10071000FFFFFF01010101010101010101010101CF
:1007200001010101000000000000000000FFFFFFC8
:10073000FFFFFFFCFCFCFCF8F8F8F8F8F8F8F0F024
:10074000E0E0C080000000000000000000000000A9
:1007500000000000000000000000000101030FFF86
:10076000FFFFFFFFFFF8000000000000C0C0C0C096
:10077000C0C0C0C0C0C0C0C0C0C0C0E0F0F8FEFF74
:10078000FF7F7F1F0F010000000000000F0F0F0F01
:100790000F0F0F0F070707070707070303030101E1
:1007A0000000000000000000000000000000000049
:1007B000008080C0E0E0F0F0F0F8F8F8F8F8F8F821
:1007C000F8FCFCFCFC0000000000000000E0F8FC6D
:1007D000FFFFFFFF1F0703010100000000000000F2
:1007E000000000000000000000000000FFFFFFFF0D
:1007F000FFFFFFF0F0F0F8F8F8F8F8F8F8F8F8F87C
:10080000F8F0F0E0E0C0000000000000FFFFFFFF94
:10081000FFFFFF03010100000000000000000001D5
:1008200007FFFFFFFFFFFFFC00000000010F3F7FFD
:10083000FFFFFFFCF0E0C0C0C0C0C0C0C0C0E0F01F
:10084000F8FFFFFF7F3F1F070000000000000000CF
:10085000000103030707070707070707070707073D
:10086000030301000000000000000000F8F8F8F8A1
:10087000F8F8F8F8F8F8F8F8F8F8F8F8F8F8F8F8F8
:10088000F8F8F8F8F8F8F800000000000303030394
:1008900003030303030303030303030303C3F3FF7C
:1008A000FFFFFFFF7F0F03000000000000000000BB
:1008B00000000000000000000080E0F8FFFFFFFFE4
:1008C0007F1F070100000000000000000000000082
:1008D000000000000080E0F8FEFFFFFFFF1F07019F
:1008E0000000000000000000000000000000000008
:1008F0000080E0F8FEFFFFFFFF3F0F030000000055
:1009000000000000000000000000000000000000E7
:100910000C0F0F0F0F0F0F0300000000000000006E
:10092000000000000000000000000000000080C087
:10093000E0E0F0F0F8F8F8F8F8F8F8F8F8F8F8F877
:10094000F0F0E0E0C00000000000000000FEFFFF4B
:10095000FFFFFF8301000000000000000000010114
:10096000FFFFFFFFFFFF1C00000000000001070F5A
:100970001F3F3FFFFFFEFCFCF8F0F0F8F8FCFEFF25
:100980009F1F0F07030000000000000080E0F8FC3C
:10099000FCFEFF3F1F0F0703030307070F0F1F3F57
:1009A000FFFFFFFEFCF8E000000000003FFFFFFF3C
:1009B000FFFFF8E0C0808080808080808080C0C0A1
:1009C000F0FFFFFFFF7F3F00000000000000010379
:1009D0000307070F0F0F0F0F0F0F0F0F0F0F0F074B
:1009E0000707030101000000000000000000008074
:1009F000C0E0F0F0F0F8F8F8F8F8F8F8F8F8F8F8DF
:100A0000F0F0E0C08000000000000000F8FEFFFFF2
:100A1000FFFFFF07030100000000000000000103CA
:100A20001FFFFFFFFFFFFCE0000000000F3FFFFF84
:100A3000FFFFFFF8E0C0C0C0C0C0C0C0C0C0C0E081
:100A4000E0FFFFFFFFFFFFFF0000000000000001CC
:100A5000010303070707070707070707070703033C
:100A6000C3FFFFFFFFFFFF3F000000000000E0E0CA
:100A7000E0E0E0E0E0E0E0E0E0E0E0F0F0F8FCFE04
:100A8000FFFF7F3F0F0701000000000000000F0F75
:100A90000F0F0707070707070707070303030101EE
:100AA0000000000000000000000000000000000046
:100AB0000000000000000000000000000000000036
:100AC0000000000000000000000000000000000026
:100AD0000000000000000000000000000000000016
:100AE0000000000000000000000000000000000006
:100AF00000000000000000000000000000000000F6
:100B000000000000000000000000000000000000E5
:100B100000000000000000000000000000000000D5
:100B200000000000000000000000000000000000C5
:100B300000000000000000000000000000000000B5
:100B400000000000000000000000000000000000A5
:100B50000000000000000000000000000000000095
:100B60000000000000000000000000000000240061
:100B700027002A0000000000250028002B000404A4
:100B80000404040404040202020202020303030335
:100B90000303010204081020408001020408102011
:100BA00001020408102000000008000201000003F8
:100BB0000407000000000000000000060F090F06F7
:100BC00000006636186C660000007F090909000005
:100BD0003F4040403F00007F404040007F40404059
:100BE000000018BAFFFFFFBA180010B8FCFFFCB8ED
:100BF00010000000183C3C180000FFFFE7C3C3E7EB
:100C0000FFFF003C664242663C00FFC399BDBD99B0
:100C1000C3FF70F88888FD7F070F004E5FF1F15F1A
:100C20004E00C0E0FF7F05050707C0FF7F05056593
:100C30007F3F995A3CE7E73C5A997F3E3E1C1C088F
:100C4000080008081C1C3E3E7F00002466FFFF666B
:100C50002400005F5F00005F5F00060F097F7F01D7
:100C60007F7F40DABFA5FD5903020070707070707D
:100C700070008094B6FFFFB694800004067F7F0664
:100C800004000010307F7F3010000808082A3E1C46
:100C90000800081C3E2A080808003C3C20202020B0
:100CA0002000081C3E08083E1C0830383C3E3E3CF4
:100CB0003830060E1E3E3E1E0E06000000000000EC
:100CC000000000065F5F060000000007070007073E
:100CD0000000147F7F147F7F1400242E6B6B3A1268
:100CE0000000466630180C666200307A4F5D377A35
:100CF00048000407030000000000001C3E634100A0
:100D000000000041633E1C000000082A3E1C1C3EFF
:100D10002A0808083E3E080800000080E060000045
:100D200000000808080808080000000060600000D3
:100D300000006030180C060301003E7F71594D7FA2
:100D40003E0040427F7F40400000627359494F6639
:100D50000000226349497F360000181C16537F7F2C
:100D60005000276745457D3900003C7E4B4979306E
:100D70000000030371790F070000367F49497F3671
:100D80000000064F49693F1E000000006666000033
:100D900000000040763600000000081C3663410069
:100DA00000002424242424240000004163361C086D
:100DB0000000020351590F0600003E7F415D5D1F98
:100DC0001E007C7E13137E7C0000417F7F49497F9B
:100DD00036001C3E634141632200417F7F41633EF8
:100DE0001C00417F7F495D416300417F7F491D01B8
:100DF00003001C3E6341517372007F7F08087F7FB0
:100E0000000000417F7F41000000307040417F3F83
:100E10000100417F7F081C776300417F7F41406074
:100E200070007F7F0E1C0E7F7F007F7F060C187F77
:100E30007F001C3E6341633E1C00417F7F49090FD8
:100E400006001E3F21717F5E0000417F7F09197FF0
:100E50006600266F4D597332000003417F7F4103C6
:100E600000007F7F40407F7F00001F3F60603F1F8A
:100E700000007F7F3018307F7F0043673C183C675D
:100E80004300074F78784F070000476371594D675B
:100E90007300007F7F41410000000103060C183001
:100EA00060000041417F7F000000080C0603060C33
:100EB000080080808080808080800000030704001C
:100EC0000000207454543C784000417F3F484878EB
:100ED0003000387C44446C280000307848493F7F1B
:100EE0004000387C54545C180000487E7F4903025F
:100EF000000098BCA4A4F87C0400417F7F08047C17
:100F0000780000447D7D4000000060E08080FD7D31
:100F10000000417F7F10386C440000417F7F40001B
:100F200000007C7C18381C7C78007C7C04047C7875
:100F30000000387C44447C38000084FCF8A4243C45
:100F40001800183C24A4F8FC8400447C784C041C51
:100F50001800485C54547424000000043E7F44246C
:100F600000003C7C40403C7C40001C3C60603C1CE1
:100F700000003C7C7038707C3C00446C3810386C4D
:100F800044009CBCA0A0FC7C00004C64745C4C64DD
:100F9000000008083E77414100000000007777001C
:100FA00000004141773E08080000020301030203EC
:100FB000010070784C464C787000FF81A1B1B9BD3A
:100FC0003CC3A5992400442A110204060A122200F7
:100FD000EF1911241FBECFEFD8E0DEBFCDBF11E067
:100FE000A0E0B1E0E8E1F4E502C005900D92AE3872
:100FF000B107D9F724E0AEE8B1E001C01D92AB31F2
:10100000B207E1F717E0C9EED7E004C02197FE016F
:101010000E94D028C83ED107C9F70E94DC1A0C9460
:101020000A2A0C9400008230910538F0880F991F2D
:10103000880F991F05970197F1F70895089508956E
:10104000833081F028F4813099F08230A9F008953E
:101050008730A9F08830C9F08430B1F480918000E5
:101060008F7D03C0809180008F77809380000895EA
:1010700084B58F7784BD089584B58F7DFBCF809133
:10108000B0008F778093B00008958091B0008F7D7D
:10109000F9CF1F93CF93DF93282F30E0F901EA5562
:1010A000F44F8491F901EE56F44FD491F901E258CE
:1010B000F44FC491CC23A9F0162F81110E9420086F
:1010C000EC2FF0E0EE0FFF1FEC58F44FA591B49118
:1010D0008FB7F894EC91111108C0D095DE23DC9302
:1010E0008FBFDF91CF911F910895DE2BF8CF61E084
:1010F000809124030C9449080F931F93CF93DF939F
:10110000C7E0D0E0082F10E060E0809120030E944B
:101110004908B8010C2E02C0759567950A94E2F74C
:101120006170809121030E94490861E08091200351
:101130000E944908219740F7DF91CF911F910F91AD
:10114000089560E0809123030C94490860E0809149
:1011500024030C94490861E0809123030C9449080E
:101160009F92AF92BF92CF92DF92EF92FF920F9336
:101170001F93CF93DF93D82FC62FC42ED22E0E9459
:10118000A6088C2F90E0029624E0959587952A95E5
:10119000E1F7982E689494F8AD2CB12CE00EF11E76
:1011A000CD0ECE5FCF700E94A1088D2F806B0E9464
:1011B0007C08892D0E947C088C2F0E947C080E944C
:1011C000AB0810E000E0F701E00FF11F84910E94EE
:1011D0007C080F5F1F4F0D15B0F3DF5FEA0CFB1C9F
:1011E000CD12E1CFDF91CF911F910F91FF90EF9042
:1011F000DF90CF90BF90AF909F900C947708CF92E4
:10120000DF92EF92FF920F931F93CF9310927A0386
:1012100021E020937B0387E080937C0380937D0310
:1012200098E090937E0390937F0339E0309380039E
:10123000309381039093820390938303809384037C
:1012400080938503209386031092870386E0809322
:101250008803809389039AE7C92E93E0D92EC0E7CB
:10126000F60101916F01002E000C110B8AEBE82EA4
:101270008FE0F82E21E041E06C2F80E00E94B00862
:10128000CF5FC03869F7CF911F910F91FF90EF901A
:10129000DF90CF9008950F931F93CF93DF93082F84
:1012A000162FEA010E94A6080E94A108802F806BD9
:1012B0000E947C08812F90E0029624E09595879506
:1012C0002A95E1F780610E947C0882E0810F8F708F
:1012D0000E947C080E94AB0833E0CC0FDD1F3A95DA
:1012E000E1F7C654D44F10E000E0FE01E00FF11F1B
:1012F00084910E947C080F5F1F4F08301105A9F7E9
:10130000DF91CF911F910F910C947708CF93DF93CA
:1013100090E0FC01EE56F44F24918258944FFC016A
:1013200084918823D1F090E0880F991FFC01E65941
:10133000F44FA591B491FC01EC58F44FC591D491B0
:1013400061110EC09FB7F8948C91E22FE0958E2327
:101350008C932881E223E8839FBFDF91CF9108958A
:101360008FB7F894EC91E22BEC938FBFF6CF3FB799
:10137000F8948091EF019091F001A091F101B0916A
:10138000F20126B5A89B05C02F3F19F00196A11DBB
:10139000B11D3FBFBA2FA92F982F8827BC01CD01BF
:1013A000620F711D811D911D42E0660F771F881F1E
:1013B000991F4A95D1F708958F929F92AF92BF924D
:1013C000CF92DF92EF92FF926B017C010E94B709EE
:1013D0004B015C01C114D104E104F104B9F00E9495
:1013E000B709681979098A099B09683E7340810524
:1013F000910580F321E0C21AD108E108F10888EED6
:10140000880E83E0981EA11CB11CE4CFFF90EF90E2
:10141000DF90CF90BF90AF909F908F900895AF9244
:10142000BF92CF92DF92EF92FF920F931F93CF93D1
:10143000DF936C017B018B01040F151FEB015E0133
:10144000AE18BF08C017D10759F06991D601ED91C8
:10145000FC910190F081E02DC6010995892B79F767
:10146000C501DF91CF911F910F91FF90EF90DF9019
:10147000CF90BF90AF900895FC01538D448D252FE0
:1014800030E0842F90E0821B930B541710F0CF961E
:10149000089501970895FC01918D828D981761F050
:1014A000A28DAE0FBF2FB11D5D968C91928D9F5F67
:1014B0009F73928F90E008958FEF9FEF0895FC0146
:1014C000918D828D981731F0828DE80FF11D858DF9
:1014D00090E008958FEF9FEF0895FC01918D228D8C
:1014E000892F90E0805C9F4F821B91098F73992711
:1014F000089589E692E00E946D0A21E0892B09F4A3
:1015000020E0822F089580E090E0892B29F00E944E
:10151000790A81110C9400000895FC01A48DA80F94
:10152000B92FB11DA35ABF4F2C91848D90E0019625
:101530008F739927848FA689B7892C93A089B18945
:101540008C91837080648C93938D848D981306C0E6
:101550000288F389E02D80818F7D80830895EF924A
:10156000FF920F931F93CF93DF93EC0181E0888F5D
:101570009B8D8C8D98131AC0E889F989808185FF2D
:1015800015C09FB7F894EE89FF896083E889F989CF
:1015900080818370806480839FBF81E090E0DF91D1
:1015A000CF911F910F91FF90EF900895F62E0B8D24
:1015B00010E00F5F1F4F0F731127E02E8C8D8E11DF
:1015C0000CC00FB607FCFACFE889F989808185FF46
:1015D000F5CFCE010E948D0AF1CFEB8DEC0FFD2FE0
:1015E000F11DE35AFF4FF0829FB7F8940B8FEA8901
:1015F000FB8980818062CFCF0F931F93CF93DF93BE
:101600008C01D0E0C0E0F801EC0FFD1F649166236F
:1016100041F089E692E00E94AF0A892B11F02196F1
:10162000F2CFCE01DF91CF911F910F910895CF930B
:10163000DF93EC01888D8823B9F0AA89BB89E889FA
:10164000F9898C9185FD03C0808186FD0DC00FB6A0
:1016500007FCF7CF8C9185FFF2CF808185FFEDCF1E
:10166000CE010E948D0AE9CFDF91CF910895FC0150
:1016700083858F3F19F061E00C9449080895FC01BF
:1016800080819181892B39F0A281B3819C9111963F
:101690008C919CBD8DBD83858F3F19F060E00C94CB
:1016A00049080895AF92BF92CF92DF92EF92FF92D6
:1016B0000F931F93CF93DF93EC0188819981892B3E
:1016C00089F06EBD0DB407FEFDCFBEB48B2DDF914A
:1016D000CF911F910F91FF90EF90DF90CF90BF902F
:1016E000AF9008958885998511E0892B09F010E85D
:1016F000AA24A394862F812309F0A12C062F2C81E4
:101700003D814E815F8160E271EA87E090E00E9456
:10171000B127F22EB02EE12CC22ED12CFF2019F0D1
:10172000C6010E9413088A85877F09F042C08D8513
:101730008F3F89F0902F912381E009F480E08A1592
:1017400051F0EF85F8898F89992369F19081892B70
:101750008083AA24A394E989FA898081998D892BB1
:101760008083FF2019F0C6010E9413088E858F3FE9
:1017700039F0EB89FC898081988D892309F0E12A71
:10178000E989FA899081898D8095892380838E8566
:101790008F3F09F0BE2C88859985892BB9F5110FEB
:1017A0001111BCCF93CF9081809589238083A12C88
:1017B000D2CFE989FA898081998D892B8083FF2096
:1017C00019F0C6010E9413088D858F3F49F0EF85FF
:1017D000F8898F89902F9123A9F09081892B80839C
:1017E000E989FA899081898D8095892380838E8506
:1017F0008F3F69F2EB89FC898081988D892339F2CA
:10180000E12AC5CF908180958923E9CF1695C8CF6D
:101810008F929F92AF92BF92CF92DF92EF92FF9200
:101820000F931F93CF93DF937C014B016A01B22E7C
:10183000A32E0E943F0BE401C80CD91CCC15DD057A
:1018400069F4CB2DDA2D0C0F1D1FC017D10759F0ED
:101850006FEFC7010E94520B8993F7CF6991C701BF
:101860000E94520BEBCFC7010E94370B81E0DF9142
:10187000CF911F910F91FF90EF90DF90CF90BF908D
:10188000AF909F908F9008958F929F92AF92BF924A
:10189000CF92DF92EF92FF920F931F93CF93DF933C
:1018A0007C01B62EA72E6A0149010E943F0BE4017C
:1018B000080D191DC017D10761F4CB2DDA2DCC0E00
:1018C000DD1ECC15DD0551F06991C7010E94520B58
:1018D000F8CF6991C7010E94520BECCFC7010E945B
:1018E000370B81E0DF91CF911F910F91FF90EF9027
:1018F000DF90CF90BF90AF909F908F9008952091F0
:10190000AF01260F3327331F21323105ECF420912C
:101910006302FC0190E080E0243069F082E00895E9
:10192000A091AF012191AC0141575E4FA40FB52F9B
:10193000B11D2C930196861798F38091AF01680F23
:101940006093AF0180E0089581E0089510926302F2
:1019500081E08093420210923D0261E082E10E94A8
:10196000490861E083E10E944908E9EBF0E08081E9
:101970008E7F808380818D7F808388E48093B80010
:1019800085E48093BC0008951092F8011092F7014D
:101990001092FA0110921C020E94A60C8EE198E0AF
:1019A0009093F6018093F5018FE198E09093F40114
:1019B0008093F3010895CF93DF9391E090938E018C
:1019C0008823B9F0C091B800D091BA008091BC00D2
:1019D0008A7B8093BC0060E082E10E94490860E05D
:1019E00083E10E9449080E94A60CD093BA00C093DC
:1019F000B800DF91CF9108958F929F92AF92BF92DE
:101A0000CF92DF92EF92FF920F931F93CF93DF93CA
:101A1000D82FC62F142F613208F09CC00E94B7093E
:101A20006B017C018091630281116FC081E0809322
:101A30006302109342029FEF909341021092400282
:101A40009C0F90933F0280933E0280913E02DD0FF7
:101A5000D82BD0933E0280913D02813009F07CC0AA
:101A600010923D020E94B7096B017C0180913E02F9
:101A70008093BB008091650290916602A0916702FD
:101A8000B0916802892B8A2B8B2BA1F00E94B70999
:101A90000091650210916602209167023091680200
:101AA0006C197D098E099F09061717072807390742
:101AB00008F44CC08091BC0083FDD8CF85EC8093A6
:101AC000BC000E94B7096B017C01809163028130E8
:101AD00009F444C0809140028C1710F4C091400278
:101AE000EDE1F2E0A3E4B2E080E08C1359C08C2F6A
:101AF000DF91CF911F910F91FF90EF90DF90CF90EA
:101B0000BF90AF909F908F900895809165029091C3
:101B10006602A0916702B0916802892B8A2B8B2BF9
:101B200009F480CF0E94B709809065029090660208
:101B3000A0906702B09068026C197D098E099F0918
:101B400086169706A806B90608F06CCF8091640245
:101B50000E94DB0CC0E0CBCF85EEB1CF8091650257
:101B600090916602A0916702B0916802892B8A2B3E
:101B70008B2B09F4AACF0E94B7090091650210913E
:101B8000660220916702309168026C197D098E0906
:101B90009F09061717072807390708F096CFD6CFF1
:101BA00091919D938F5FA1CF8F929F92AF92BF92A1
:101BB000CF92DF92EF92FF920F931F93CF93DF9319
:101BC000D0911C02D13208F0D7C0182FC0911B024F
:101BD0000E94B7096B017C018091630281116BC087
:101BE00082E080936302109342028FEF8093410260
:101BF00010924002D0933F02ABEFB1E0EDE1F2E092
:101C000080E0D81391C010923E0280913E02CC0F2A
:101C1000C82BC0933E0280913D02813009F088C0FC
:101C200010923D020E94B7096B017C0180913E0237
:101C30008093BB008091650290916602A09167023B
:101C4000B0916802892B8A2B8B2BA1F00E94B709D7
:101C5000009165021091660220916702309168023E
:101C60006C197D098E099F09061717072807390780
:101C700008F442C08091BC0083FDD8CF85EC8093EE
:101C8000BC000E94B7096B017C0180916302823025
:101C900009F450C0809141028F3F09F46FC08091D8
:101CA0004102803209F46CC080914102803309F412
:101CB00069C084E026C08091650290916602A0917F
:101CC0006702B0916802892B8A2B8B2B09F484CF91
:101CD0000E94B7098090650290906602A09067020A
:101CE000B09068026C197D098E099F0986169706C7
:101CF000A806B90608F070CF809164020E94DB0C40
:101D000085E01092FA0110921C021092F901DF9105
:101D1000CF911F910F91FF90EF90DF90CF90BF90E8
:101D2000AF909F908F9008959D9191938F5F69CF11
:101D300085EEA5CF8091650290916602A091670221
:101D4000B0916802892B8A2B8B2B09F49ECF0E94BD
:101D5000B7090091650210916602209167023091E7
:101D600068026C197D098E099F0906171707280755
:101D7000390708F08ACFC0CF81E0C3CF80E0C1CF60
:101D800082E0BFCF83E0BDCF1F93CF93DF93EA0103
:101D9000122FDC0111968D919C91DC01ED91FC914B
:101DA0000280F381E02D0995C817D90729F4812F06
:101DB0000E94D40D91E0811190E0892FDF91CF91A5
:101DC0001F910895AF92BF92CF92DF92EF92FF9250
:101DD0000F931F93CF93DF9300D0CDB7DEB7DC0115
:101DE000211103C018962C911897253008F043C094
:101DF0001F964D935D936D937C93529790E080E096
:101E0000E22EF12C8E159F05B4F41A962C911A9798
:101E100021110AC0FD01E80FF91F4387452F562FF6
:101E2000672F77270196EECFF701E81BF90BEA0F32
:101E3000FB1F4287F3CF6D018BE0C80ED11C1696B5
:101E40009C91169717968C91179799838A83AD90DA
:101E5000BC901197A114B10409F441C019960C91DA
:101E600010E098012E0D3F1DD50114968D919C9187
:101E70008217930710F480E016C0F50181819281EA
:101E8000208131E03093F90120931B021092FA0176
:101E900010921C020115110599F421E0A701B60169
:101EA000C5010E94C40E0F900F90DF91CF911F913A
:101EB0000F91FF90EF90DF90CF90BF90AF9008957B
:101EC000DC01ED91FC910280F381E02DA801BE01BF
:101ED0006F5F7F4F09950817190769F6DECF1296D5
:101EE000ED91FC911397309731F214962D913C911E
:101EF000159719960C9110E02330310571F48E7FFF
:101F000089839A830F5F1F4F9E012F5F3F4FA70169
:101F1000B601CF010E94440CC6CF2115310519F43A
:101F20009F779983F1CF2230310511F49068F9CF72
:101F30002130310549F79F779064F3CFCF93DF933A
:101F4000EC018B818823A1F0888191E09093F901C5
:101F500080931B021092FA0110921C0281E00E94F1
:101F6000D40D91E0811190E0892FDF91CF910895F8
:101F70000E94C40C81E08B83CE010E949E0F982F9B
:101F80008111E2CFF1CF0895E091F8018091F7013E
:101F9000E81730F4F0E0ED5BFD4F808190E00895AC
:101FA0008FEF9FEF08959091F8018091F7012FEF47
:101FB0003FEF981748F4E92FF0E0ED5BFD4F2081EB
:101FC00030E09F5F9093F801C90108958091F70177
:101FD0009091F801891B990B0895CF92DF92EF92AF
:101FE000FF920F931F93CF93DF937C01CB018A0164
:101FF0002091F901222389F0EB016B01C40ED51E5B
:10200000CC15DD0569F06991D701ED91FC91019046
:10201000F081E02DC7010995F3CF642F0E947F0C5A
:10202000C801DF91CF911F910F91FF90EF90DF904A
:10203000CF900895CF93DF931F92CDB7DEB769831A
:102040002091F9012223F9F020911C02203258F04E
:1020500021E030E0FC013383228390E080E00F90A8
:10206000DF91CF9108958091FA01E82FF0E0E550DB
:10207000FE4F998190838F5F8093FA0180931C02B9
:1020800081E090E0ECCF61E0CE0101960E947F0CF0
:10209000F7CF90E080E00895AF92BF92CF92DF92A9
:1020A000EF92FF920F931F93CF93DF93CDB7DEB7DD
:1020B0002E970FB6F894DEBF0FBECDBF0E94C40CA2
:1020C00081E08093F90186E780931B021092FA0168
:1020D00010921C026EE186E093E00E941A1081E0EB
:1020E0000E94D40D80931303811129C0CE01019663
:1020F0007C0110EA01E086E7A82E0093F901A09286
:102100001B021092FA0110921C02612F86E093E0EC
:102110000E941A1080E00E94D40D80931303811155
:102120000EC041E062E086E70E94FC0C1092F801CC
:102130008093F7018230A1F08EEF809313032E96E7
:102140000FB6F894DEBF0FBECDBFDF91CF911F91C8
:102150000F91FF90EF90DF90CF90BF90AF900895D8
:1021600086E093E00E94D30FB82E86E093E00E94B1
:10217000D30FC12C8C299B29F701819391937F0167
:102180001E5F1E3A09F0B9CF8B819C819093150395
:10219000809314038D819E8190931703809316037F
:1021A0008F819885909319038093180389859A8568
:1021B00090931B0380931A038B859C8590931D033A
:1021C00080931C038D859E8590931F0380931E032F
:1021D00000931203B4CFCF92DF92EF92FF92CF938E
:1021E000C1E0C093F90196E790931B021092FA01A7
:1021F00010921C02682F86E093E00E941A1081E082
:102200000E94D40D80931303882349F060E070E0AE
:10221000CB01CF91FF90EF90DF90CF900895EEEC3F
:10222000FFE0649170E090E080E00E94DC09C093E0
:10223000F9011092FA0110921C0260E086E093E02E
:102240000E941A1080E00E94D40D80931303811124
:10225000DDCF41E063E086E70E94FC0C1092F801BC
:102260008093F701833069F041E063E086E70E94E4
:10227000FC0C8093F701833021F08EEF80931303E1
:10228000C5CF86E093E00E94D30F7C0186E093E007
:102290000E94D30F6C01B701FF0C880B990BCB0187
:1022A000772766270D2C000CEE08FF08FE2CED2C7E
:1022B000DC2CCC24C62AD72AE82AF92A86E093E027
:1022C0000E94D30F092E000CAA0BBB0BBC01CD0141
:1022D0006C297D298E299F299CCF2F923F924F9266
:1022E0005F926F927F928F929F92AF92BF92CF92A6
:1022F000DF92EF92FF920F931F93CF93DF93CDB7AF
:10230000DEB769970FB6F894DEBF0FBECDBF209140
:1023100013032223D9F01D868D8569960FB6F89494
:10232000DEBF0FBECDBFDF91CF911F910F91FF9008
:10233000EF90DF90CF90BF90AF909F908F907F9065
:102340006F905F904F903F902F900895E090120310
:10235000ED86EE2001F37F8B6E8B9E838D838AE565
:102360000E94EB102B013C014114510461047104E3
:1023700091F280911C0390911D03B0E0A0E0BA2F70
:10238000A92F982F8827481A590A6A0A7B0A609150
:102390001E0370911F0390E080E0A30192010E9450
:1023A0003628F22E032F142FB52FF62FE72FD82E15
:1023B000E92EA0E00E94C42884F42150310940484D
:1023C0005F4F6F4F7F4F8F4F9F4FF22E032F142F72
:1023D000B52FF62FE72FD82EE92E2F2D302F412F96
:1023E0005B2F6F2F7E2F8D2D9E2D07E10E94892858
:1023F00049019A0184010053184F2F4F3F4F098321
:102400001A832B833C83C301B201A30192010E9472
:102410003628E980FA800B811C81A0EDEA16A7E03E
:10242000FA06010511050CF41AC2F5E0AF2EB12C25
:10243000C12CD12CE12CF12C00E010E00E94DE2711
:1024400006E20E948928F22FE32F6A017B018C01AA
:1024500029813A814B815C8189809A80AB80BC80E4
:10246000BB0C8808982C5401682D782D882D982D48
:10247000AF2EBE2E0E94BB280E949F2420E030E099
:1024800048EC52E40E94F723ED81FE816083718362
:10249000828393838AE40E94EB1069877A878B8713
:1024A0009C87672B682B692B09F435CF60911A0341
:1024B00070911B0390E080E0A30192010E943628F6
:1024C000122F3E874D83B52FF62FE72FF82E092FB9
:1024D000A0E00E94C4285CF4AFE30E94AF28122F52
:1024E0003E874D83B52FF62FE72FF82E092F212F8A
:1024F0003E854D815B2F6F2F7E2F8F2D902F06E015
:102500000E94892849014E875D83B62FA72FF82F97
:10251000E92FA0901603B0901703950140E050E01A
:1025200060E070E080E090E001E10E9470285901D5
:102530006A017B018C0194014E855D816B2F7A2F9E
:102540008F2F9E2F0E94A6282E873F87488B598B5E
:102550006A8B7B8B8C8B9D8B609118037091190318
:1025600090E080E0A30192010E943628122F388F5C
:102570004D83B52FF62FE72FF82E092FA0E00E94EC
:10258000C4285CF4AFE70E94AF28122F388F4D8328
:10259000B52FF62FE72FF82E092F212F388D4D81DB
:1025A0005B2F6F2F7E2F8F2D902F07E00E948928A1
:1025B0004901488F5D83B62FA72FF82FE92FA090F0
:1025C0001403B0901503950140E050E060E070E026
:1025D00080E090E000E10E94702859016A017B01CF
:1025E0008C019401488D5D816B2F7A2F8F2F9E2F48
:1025F0000E94A628288F398F942E852E362E272EBE
:10260000F82FE92FE980FA800B811C8120EDE2167A
:1026100027E0F206010511050CF09DC0C801B701C5
:10262000605D7740810991099B01AC010E94A1275F
:10263000ADE3B0E0AC019B010E94D3272B013C012C
:1026400064E075946794579447946A95D1F7ADE127
:10265000B0E00E94D3277B018C0174E015950795AB
:10266000F794E7947A95D1F7ED82FE820F8318876D
:1026700009811A812B813C8104324AEF14074FEF04
:102680002407340724F5C901B80164527A4F8F4FEB
:102690009F4F9B01AC010E94A127A1E1B0E0AC01DA
:1026A0009B010E94D327460E571E681E791EA9E083
:1026B000B0E00E94D327ED80FE800F811885E60EE2
:1026C000F71E081F191FED82FE820F8318879301E2
:1026D0008201330F000B102F980109831A832B837B
:1026E0003C832E853F85488959896A897B898C89F5
:1026F0009D8952016301E980FE2C0E2D1E2D0E9442
:10270000BB282E873F87488B598B6A8B7B8B8C8BA2
:102710009D8B4D805E806F807884770C4408542CAC
:102720003201288D398D492D582D632D722D8F2F13
:102730009E2FAD80BE80CF80D884E42CF42C042D55
:10274000142D0E94BB28288F398F942E852E362E6B
:10275000272EF82FE92F49845A846B847C84770CC8
:102760004408542C3201A88CB98CC92CD82CE32CE9
:10277000F22C0F2F1E2F29853A854B855C85642D01
:10278000742D842D942D0E94DE27122F3D834983C2
:10279000B52FF62FE72FF82E092FA0E00E94C428AE
:1027A00084F421503109404E5F4F6F4F7F4F8F4F60
:1027B0009F4F122F3D834983B52FF62FE72FF82E19
:1027C000092F212F3D8149815B2F6F2F7E2F8F2D68
:1027D000902F05E10E948928AE84BF84C888D988DB
:1027E000EA88FB880C891D890E94BB28122F3D8333
:1027F0004983B52FF62FE72FF82E092FA0E00E946E
:10280000C42884F4215030484F4F5F4F6F4F7F4FA3
:102810008F4F9F4F122F3D834983B52FF62FE72F00
:10282000F82E092F212F3D8149815B2F6F2F7E2F9D
:102830008F2D902F0FE00E948928B901CA010E94B4
:10284000A72420E030E048EC52E40E94F723AE8950
:10285000BF896D937D938D939C9313975DCDE3E03A
:10286000AE2EB12CC12CD12CE12CF12C00E010E0CB
:102870000E94DE2701E2E5CD2F923F924F925F92B8
:102880006F927F928F929F92AF92BF92CF92DF9280
:10289000EF92FF920F931F93CF93DF9300D0CDB7AA
:1028A000DEB77C01DC0118960C914C01BBE08B0E6D
:1028B000911CFC019681878199838A83C080D18095
:1028C000C114D10409F464C0418550E0D6011496C6
:1028D0008D919C9115978417950708F4ACC08C9145
:1028E00091E09093F90180931B021092FA011092EB
:1028F0001C0220E0BE016F5F7F4FC6010E94C40E24
:10290000882309F498C0602E712CB12CA12CA61438
:10291000B70408F05DC0F6018481958183010A192E
:102920001B098017910708F48C0141E0C301801B4B
:10293000910BA816B90608F440E0602F013208F0A8
:1029400060E2D6018C910E94FC0C1092F8018093F9
:10295000F7018017110609F06EC024014A0C5B1CB8
:102960001201C101841995098017910770F4F601CD
:1029700081819281DC01ED91FC910284F385E02D4F
:102980000995F10181931F01ECCFA00EB11EBFCFBD
:10299000D7010280F381E02D309709F44CC01496E2
:1029A0002D913C91159710E019964C9150E02330F1
:1029B000310561F5816089839A834F5F5F4F940190
:1029C000BE016F5F7F4FCF010E94080C882399F1F1
:1029D000F701408550E030E020E060E070E0CB019E
:1029E000241735075CF5982F872F762F6627D70198
:1029F0001A96EC91E1111AC0FA01E21BF30BEE0DED
:102A0000FF1DE2856E2B2F5F3F4FEACF2115310569
:102A100019F490689983D3CF2230310511F49F7750
:102A2000F9CF2130310559F6906CF4CFF701E20F60
:102A3000F31FE385E7CF6FEF7FEFCB010F900F9090
:102A4000DF91CF911F910F91FF90EF90DF90CF908A
:102A5000BF90AF909F908F907F906F905F904F90BE
:102A60003F902F900895CF93DF93CDB7DEB7639754
:102A70000FB6F894DEBF0FBECDBF809113049091C6
:102A80001404188A198A1A8A1B8A9A8389831C82D9
:102A90001B8281E08A8728E030E038872F838B878C
:102AA00082E08987CE0101960E943C14CB01639697
:102AB0000FB6F894DEBF0FBECDBFDF91CF91089562
:102AC0008F929F92AF92BF92CF92DF92EF92FF923E
:102AD0000F931F93CF93DF93EC014A015B01888131
:102AE00099810E943C142A8101E010E002C0000F8D
:102AF000111F2A95E2F701501109012E000C220B3B
:102B0000330BAB81680179010A2E04C0CC0CDD1CAB
:102B1000EE1CFF1C0A94D2F7C094D094E094F09479
:102B2000C622D722E822F922E881F981B901A80159
:102B3000482159216A217B2104C0440F551F661F7B
:102B4000771FAA95D2F74C295D296E297F29208508
:102B5000CF01DF91CF911F910F91FF90EF90DF9008
:102B6000CF90BF90AF909F908F900C94E20EFC019D
:102B700001900020E9F73197AF01481B590BBC01C8
:102B800089E692E00C940F0A8F929F92AF92BF92C7
:102B90000F931F93CF93DF93CDB7DEB7A1970FB6F7
:102BA000F894DEBF0FBECDBF19A2423008F44AE050
:102BB0008E010F5D1F4F842E912CB12CA12CA501ED
:102BC00094010E94B127E62FB901CA01EA30F4F45A
:102BD000E05DD801EE938D01232B242B252B79F773
:102BE00090E080E0109719F0CD010E94B715A196F2
:102BF0000FB6F894DEBF0FBECDBFDF91CF911F910E
:102C00000F91BF90AF909F908F900895E95CE1CFB6
:102C10004F925F926F927F928F929F92AF92BF92EC
:102C2000CF92DF92EF92FF920F931F93CF936B019E
:102C30007C01742EAC019B010E946726882399F0C9
:102C400084E491E0CF911F910F91FF90EF90DF907E
:102C5000CF90BF90AF909F908F907F906F905F903C
:102C60004F900C94B71546015701E894B7F82FEF31
:102C70003FEF4FE75FE7C501B4010E94672681116E
:102C80000DC02FEF3FEF4FE75FE7C501B4010E9492
:102C9000F22318161CF488E491E0D4CF2FEF3FEF15
:102CA0004FE75FE4C701B6010E94A52518161CF482
:102CB0008CE491E0C7CF2FEF3FEF4FE75FECC70108
:102CC000B6010E94F22387FDF3CF20E030E0A90196
:102CD000C701B6010E94F22310E000E087FF0AC09E
:102CE0006DE289E692E00E94AF0A8C01F7FAF09457
:102CF000F7F8F094C0E060E070E080E09FE37C16BD
:102D000041F020E030E040E251E40E94F723CF5F41
:102D1000F6CFA70196010E9486232B013C010E9459
:102D200070244B015C014AE00E94C4157C01E00E56
:102D3000F11ECC23C1F1C501B4010E94A5249B0161
:102D4000AC01C301B2010E9485234B015C016EE21C
:102D500089E692E00E94AF0AE80EF91EC15018F110
:102D600020E030E040E251E4C501B4010E94AA2510
:102D70002B013C010E9470244B01B12CA12C4AE094
:102D8000C501B4010E94C415E80EF91EC501B401C5
:102D90000E94A5249B01AC01C301B2010E948523BE
:102DA0004B015C01DBCFC701CF911F910F91FF90C9
:102DB000EF90DF90CF90BF90AF909F908F907F90DB
:102DC0006F905F904F900895CF93DF9342E00E9401
:102DD0000816EC0180E591E00E94B7158C0F9D1F4D
:102DE000DF91CF910895CF93DF934AE00E94C415FD
:102DF000EC0180E591E00E94B7158C0F9D1FDF91DB
:102E0000CF910895CF93DF93BC0190E080E040E143
:102E10000E94C415EC0180E591E00E94B7158C0F6B
:102E20009D1FDF91CF910895CF92DF92EF92FF9295
:102E30000F931F93CF93DF93CDB7DEB767970FB68E
:102E4000F894DEBF0FBECDBF80911304909114049F
:102E5000009741F00E9481298091150490911604F9
:102E60000E94812986E090E00E94E5288C0186E39B
:102E7000F801808386E093E092838183138280E26D
:102E800090E09583848310931404009313040E94AC
:102E9000C40CFF24F394F801F382C8010E949E0F32
:102EA000811111C000E0802F67960FB6F894DEBF45
:102EB0000FBECDBFDF91CF911F910F91FF90EF908B
:102EC000DF90CF9008950E943315807F409751F78F
:102ED00083E190E00E94E528FC0180911304909129
:102EE00014041786108A118A128A918380831382B0
:102EF0001282F1862AE130E0378326831286F0863B
:102F0000F0931604E0931504188A198A1A8A1B8A0A
:102F10009A8389831C821B82FA868EEF90E09887C1
:102F20008F83FB8682E0898720E040E054E560E003
:102F300070E0CE0101967C010E94E20E8111B2CFB9
:102F400013E0C0901504D0901604C6010E943C14F2
:102F5000AB01BC014E7F20E0C6010E94E20E082FAB
:102F6000811103C0115069F79DCF80911304909196
:102F70001404188A198A1A8A1B8A9A8389831C82E4
:102F80001B8211E01A8786E090E098878F831B866A
:102F90001987FD8AEC8A1E8B85E08F8B40E050E01C
:102FA000BA01CE0144960E9460158091130490915D
:102FB0001404188A198A1A8A1B8A9A8389831C82A4
:102FC0001B821A878CE090E098878F831B8782E0B2
:102FD0008987FD8AEC8A1E8B87E08F8B40E050E06A
:102FE000BA01CE0144960E9460155DCF85ED8093B5
:102FF000BC008091650290916602A0916702B09139
:1030000068020796A11DB11D23E0B695A795979577
:1030100087952A95D1F72091BC0024FD03C010921A
:1030200063020895409165025091660260916702C3
:1030300070916802452B462B472B69F30097A10539
:10304000B10541F02AE22A95F1F700C00197A109E4
:10305000B109E1CF809164020C94DB0C1F920F92B6
:103060000FB60F9211242F933F938F939F93AF939B
:10307000BF938091EB019091EC01A091ED01B09193
:10308000EE013091EA0123E0230F2D3758F5019628
:10309000A11DB11D2093EA018093EB019093EC01F7
:1030A000A093ED01B093EE018091EF019091F001BA
:1030B000A091F101B091F2010196A11DB11D809383
:1030C000EF019093F001A093F101B093F201BF9151
:1030D000AF919F918F913F912F910F900FBE0F90C5
:1030E0001F90189526E8230F0296A11DB11DD2CF7F
:1030F0001F920F920FB60F9211242F933F934F936D
:103100005F936F937F938F939F93AF93BF93EF934F
:10311000FF9389E692E00E948D0AFF91EF91BF91A3
:10312000AF919F918F917F916F915F914F913F915F
:103130002F910F900FBE0F901F9018951F920F9216
:103140000FB60F9211242F938F939F93EF93FF93BA
:10315000E0917902F0917A028081E0917F02F09112
:10316000800282FD1BC09081809182028F5F8F73ED
:1031700020918302821741F0E0918202F0E0E7594A
:10318000FD4F958F80938202FF91EF919F918F91D8
:103190002F910F900FBE0F901F9018958081F4CF44
:1031A0001F920F920FB60F9211242F933F934F93BC
:1031B0005F936F937F938F939F93AF93BF93EF939F
:1031C000FF938091B900887F803609F44AC0F0F5FA
:1031D000883209F4A7C018F5803109F49BC0B8F40F
:1031E000882309F4F9C0883009F494C0FF91EF9165
:1031F000BF91AF919F918F917F916F915F914F910F
:103200003F912F910F900FBE0F901F90189588310E
:1032100009F488C0803251F78093410214C0803491
:1032200009F49DC040F48033B9F38833F9F68093F4
:10323000410285ECB0C0803509F485C0883509F4B9
:1032400096C0883499F60E94F617D0CF883909F4D1
:103250008CC038F5883729F050F4883611F0803763
:1032600029F683E0809363021092D10157C0883819
:1032700009F47BC0803919F0803809F0B7CF80910C
:10328000D101803208F071C0E091D10181E08E0F50
:103290008093D1018091BB00F0E0EF54FE4F80831A
:1032A0003DC0803B39F0E0F4803A09F479C0883AB7
:1032B00009F09CCF84E0809363021092B0011092D9
:1032C000AF01E091F501F091F60109958091AF0110
:1032D00081110FC081E08093AF0110928F0109C06E
:1032E000803C09F4A6CF883C09F4A3CF883B09F0C1
:1032F0007DCFE091B00181E08E0F8093B001F0E0CE
:10330000E157FE4F80818093BB009091B001809186
:10331000AF0129C080913E028093BB0085EC809371
:10332000BC0064CF9091400280913F02981758F5FD
:10333000E091400281E08E0F80934002F0E0E35E76
:10334000FD4F8081E9CFE091400281E08E0F8093B4
:1033500040028091BB00F0E0E35EFD4F80839091DE
:10336000400280913F029817C8F285E8D8CFE091DB
:10337000400281E08E0F809340028091BB00F0E01C
:10338000E35EFD4F80838091420281115CCF81E03A
:1033900080933D0284EA8093BC001092630226CFA2
:1033A00085EC8093BC00109263028091D101803241
:1033B00030F4E091D101F0E0EF54FE4F10826091C3
:1033C000D10170E0E091F301F091F40181EB91E023
:1033D00009951092D1010ACF1092410234CFCF93B8
:1033E000DF9310926C0210926B0288EE93E0A0E0E3
:1033F000B0E080936D0290936E02A0936F02B09341
:10340000700224E231E030936A022093690225ECD5
:1034100030E0309376022093750224EC30E0309354
:1034200078022093770220EC30E030937A022093E8
:10343000790221EC30E030937C0220937B0222EC75
:1034400030E030937E0220937D0226EC30E0309312
:10345000800220937F0210928202109283021092C7
:10346000840210928502109209031092080380933F
:103470000A0390930B03A0930C03B0930D0386E310
:1034800091E0909307038093060310921404109226
:10349000130410921604109215048DE080932003FB
:1034A0008BE08093210388E08093220389E080935E
:1034B00023038AE08093240361E088E00E94860968
:1034C00061E0809122030E94490861E0809120031D
:1034D0000E94860961E0809121030E94860961E0D3
:1034E000809123030E94860961E0809124030E9459
:1034F000860960E0809122030E94490883E290E0FF
:103500000197F1F761E0809122030E9449080E942F
:10351000A6080E94A10882E00E947C08C0E00E94E8
:10352000A1088C2F806B0E947C0880E10E947C089F
:103530000E94AB08D0E080E00E947C08DF5FD038BA
:10354000D1F7CF5FC83059F70E9477080E94A608CC
:103550000E94A10881EA0E947C0888EC0E947C08F5
:1035600081E80E947C0880E10E947C088FEA0E942A
:103570007C080E947708E5E2F3E0C9E6D3E04DEA73
:1035800053E080E2819381A3899389A3DA018D932B
:10359000AD0191968C939F0125533F4FD9018C9398
:1035A000B3E0E533FB0771F7109212038DEF8093C0
:1035B0001303DF91CF910895CF93DF93CDB7DEB79B
:1035C00068970FB6F894DEBF0FBECDBF789484B570
:1035D000826084BD84B5816084BD85B5826085BD0F
:1035E00085B5816085BD80916E00816080936E009D
:1035F000109281008091810082608093810080918F
:10360000810081608093810080918000816080933F
:1036100080008091B10084608093B1008091B000FF
:1036200081608093B00080917A00846080937A00FA
:1036300080917A00826080937A0080917A00816024
:1036400080937A0080917A00806880937A0010924B
:10365000C100E0917902F0917A0282E08083E091EA
:103660007502F09176021082E0917702F091780273
:103670008FEC808310928102E0917D02F0917E02B6
:1036800086E08083E0917B02F0917C028081806102
:103690008083E0917B02F0917C028081886080834E
:1036A000E0917B02F0917C02808180688083E091D0
:1036B0007B02F0917C0280818F7D80830E94A6082E
:1036C0000E94A10881E80E947C088FEF0E947C087C
:1036D0000E9477080E941417811111C08CED92E0AE
:1036E0000E94FC0A80E591E00E94B7150E94FF0845
:1036F00068E873E180E090E00E94DC09EBCF8CEB9E
:1037000092E00E94FC0A8091130490911404188A9C
:10371000198A1A8A1B8A9A8389831C821B8281E0F8
:103720008A8729E130E038872F831B868987CE017D
:1037300001960E943C1477278827992740E10E9430
:10374000C41580E591E00E94B71560E08CE00E940E
:1037500086090E944C1084EB92E00E94FC0A809142
:103760001403909115030E9402178CEA92E00E94C4
:10377000FC0A80911603909117030E94021784EAB5
:1037800092E00E94FC0A80911803909119030E9414
:1037900002178CE992E00E94FC0A80911A03909132
:1037A0001B030E94021784E992E00E94FC0A8091A8
:1037B0001C0390911D030E9402178CE892E00E9466
:1037C000FC0A80911E0390911F030E9402178EE74E
:1037D00092E00E94FC0A8AE40E94EB100E94F31619
:1037E00080E792E00E94FC0A8AE50E94EB100E94AA
:1037F000F31681E692E00E94FC0A8AE40E94EB1034
:103800000E94F31682E592E00E94FC0A8AE50E947B
:10381000EB100E94F31684E492E00E94FC0A8AE412
:103820000E94EB100E94F31686E392E00E94FC0ACD
:103830008AE50E94EB100E94F316BE016F5F7F4F76
:10384000CE0144960E946D11182F83E292E00E94EF
:10385000FC0A88EE91E0111102C084EE91E00E9412
:10386000FC0A80E591E00E94B71582E192E00E9497
:10387000FC0A6C897D898E899F890E94E4168DEFF0
:1038800091E00E94FC0A69817A818B819C810E946F
:10389000E4168BEE91E00E94FC0AC09013030C2CFE
:1038A000000CDD08EE08FF084AE0C701B601F7FE8C
:1038B0000DC06DE289E692E00E94AF0A6627772785
:1038C000CB016C197D098E099F094AE00E94C4153D
:1038D00080E591E00E94B7156AED71E08EED91E010
:1038E0000E946D1120E030E54DE754E46091DA016B
:1038F0007091DB018091DC019091DD010E94F72342
:103900002FEC39ED42E45EE30E9417269B01AC01E7
:1039100060E070E080E89FE30E9485232DE935EFA9
:103920004DE058E40E94AA256093D6017093D70118
:103930008093D8019093D9010E94E4169CE0292E2F
:10394000312C24E0822E912C39E0A32EB12C0E9440
:103950003315807F409709F054C0809113049091F3
:103960001404188A198A1A8A1B8A9A8389831C82EA
:103970001B8281E08A8722E030E038872F838B87A3
:1039800082E08987CE0101960E943C140E94A52402
:1039900020E030E44CE952E40E94AA2520E034E221
:1039A00044E759E40E94F7236093E6017093E7012E
:1039B0008093E8019093E9019B01AC010E94672686
:1039C000882321F183E591E00E94B71580E591E01D
:1039D0000E94B7150E9414170E94FF0860ED77E05F
:1039E00080E090E00E94DC0980E090E0892B09F4FF
:1039F000AECF0E94790A882309F4A0CF0E9400006C
:103A00009DCF60E070E080EC9FE7CECF0E94331541
:103A1000807F409709F050C1809113049091140465
:103A2000188A198A1A8A1B8A9A8389831C821B82A4
:103A300081E08A8798868F828B8782E08987CE0192
:103A400001960E943C140E94A52420E030E040E84A
:103A50005BE30E94AA256093E2017093E3018093E7
:103A6000E4019093E5016091E6017091E701809196
:103A7000E8019091E9010EEB13E021E043E00E94A0
:103A8000F92086E78093C1030DEA13E080E3F82E66
:103A9000D80151964C9151978C91481739F0042ECA
:103AA000000C550B6F2D80E00E944B09F8018189B5
:103AB000D8018D938D01B8E0FB0EE0E5FE12E8CF52
:103AC000C090E201D090E301E090E401F090E501C4
:103AD0000CE913E020E042E0C701B6010E94F920A2
:103AE00081E080939E0320E030E047EC52E4C70180
:103AF000B6010E94A52587FD09C082E080939C0342
:103B000083E080939D0384E080939E030BE813E0A1
:103B1000F8E5F88FD80151964C9151978C91481740
:103B200039F0042E000C550B688D80E00E944B0983
:103B3000F8018189D8018D938D01B88DB85FB88F58
:103B4000B03741F7E2EBFBE08491EEE9FBE0149142
:103B5000EAE8FBE00491002309F4B3C081110E945C
:103B60002008E02FF0E0EE0FFF1FE05EFC4FA59174
:103B7000B4918C91182331E020E009F430E0832FD8
:103B8000922F4090E2015090E3016090E401709028
:103B9000E50110927A0321E020937B03ECE7F3E048
:103BA00025E0219333E0E538F307D9F7019709F4CD
:103BB0008BC081E0809386031092870386E0809318
:103BC00088038093890320E030E048EC52E4C3018D
:103BD000B2010E94A52587FF82C020E030E0A90144
:103BE000C301B2010E94F22318160CF07FC020E03E
:103BF00030E040E251E4C301B2010E94F7230E9489
:103C000069248B01072E000C880B990B0E94A724B6
:103C100020E030E040E251E40E94AA259B01AC0183
:103C2000C301B2010E9485232B013C0120E030E05A
:103C30004CE051E40E94A525181614F40F5F1F4FA5
:103C4000FAE0EF2EF12CE01AF10A20E030E040EA31
:103C50005FE3C301B2010E94A525181604F520E018
:103C600030E04CE051E4C301B2010E94F223181687
:103C7000B4F07501E01AF10A0E5F1F4F20E030E04A
:103C800040E750E4C301B2010E94F223005E1C4FE2
:103C900087FF30C0F801E65AFF4F82E08083C10100
:103CA0008E199F09FC01E658FC4F21E08C309105EC
:103CB00094F521930196FACF60E070E080EC9FE7E5
:103CC000CACE90E080E05DCF8BE0809386038CE0ED
:103CD000809387038DE0809388038EE072CF412C20
:103CE000512CA8EC6A2EA2E47A2E81CF412C512CC3
:103CF00032017DCF20E030E048EC50E4C301B20156
:103D00000E94F223F801E65AFF4F87FF02C083E0CA
:103D1000C5CF84E0C3CFE9E66E2EE3E07E2EF3014B
:103D2000018980819FEF691A790A081769F0002ECE
:103D3000000C110B7AEBE72E7FE0F72E21E041E03B
:103D4000688D80E00E94B008D30150968C91F301F9
:103D500031978083B88DBF5FB88FB03801F78091FD
:103D60001203882309F494C180911303811190C137
:103D70006AED71E08EED91E00E946D1120E030E57A
:103D80004DE754E46091DA017091DB018091DC0130
:103D90009091DD010E94F7232FEC39ED42E45EE3C0
:103DA0000E9417269B01AC0160E070E080E89FE371
:103DB0000E9485232DE935EF4DE058E40E94AA25A5
:103DC0002091D6013091D7014091D8015091D9016D
:103DD0000E9485236093D2017093D3018093D40114
:103DE0009093D501C090DE01D090DF01E090E0011A
:103DF000F090E10120E030E040E251ECC701B60173
:103E00000E94F22300EE13E018160CF444C120E0E7
:103E100043E0C701B6010E94F9201092E30364E079
:103E2000662E712C0FEC13E0F12CE12CF801418986
:103E30008081481751F0042E000C550B6E2D660F33
:103E4000660F660F80E00E944B09D80151968C9155
:103E5000F80181938F01FFEFEF1AFF0A6E147F04C0
:103E600029F720E030E0A9016091D2017091D301DF
:103E70008091D4019091D5010E9486232B013C01B1
:103E800020E030E0A9010E94F2237301620187FF64
:103E900004C0F7FAF094F7F8F0948E010F5F1F4F0B
:103EA00020E045E0C701B6010E94F92020E030E49F
:103EB0004CE156E4C701B6010E94A5250D8187FD9E
:103EC000F8C020E030E0A901C301B2010E94F22352
:103ED00087FFEDC086E180933603898180933703A5
:103EE0008A818093380387E0809339038B818093A4
:103EF0003A038C8180933B0300933C03409136034B
:103F000080912503481739F0042E000C550B60E012
:103F100084E00E944B09E091370380912603E81763
:103F2000C1F0E63109F02FC14AE2E42E43E0F42E5D
:103F300000E817E020E246E068E082E00E94B00876
:103F400040913703042E000C550B60E284E00E9480
:103F50004B09E091380380912703E817D1F0E05234
:103F60008BE090E0EA3128F4F0E0EA5FFE4F8081D8
:103F700090E020EC289F8001299F100D11242AE257
:103F8000E22E23E0F22E20E246E068E282E00E9488
:103F9000B0084091390380912803481739F0042E66
:103FA000000C550B68E484E00E944B09E0913A0351
:103FB00080912903E817C1F0ED3209F0FFC09AE2C1
:103FC000E92E93E0F92E00E817E020E246E060E5F4
:103FD00082E00E94B00840913A03042E000C550B79
:103FE00068E687E00E944B0940913B0380912A03D9
:103FF000481739F0042E000C550B60E787E00E944B
:104000004B0940913C0380912B03481739F0042E53
:10401000000C550B68E787E00E944B09E5E2F3E0EE
:104020008189819323E0EC32F207D1F70E94A60840
:104030000E94A10880EB0E947C0880E10E947C081D
:1040400080E00E947C080E94AB0880E00E947C080F
:104050000E9477086091DE017091DF018091E0019C
:104060009091E10142E00E9408168CE891E00E94E4
:10407000B7156091D2017091D3018091D4019091D4
:10408000D5010E94E41664E670E080E090E0AACCDE
:104090000E944C106DCE21E044E0C701B6010E94A1
:1040A000F9201092E40355E0652E712CBBCE80E21E
:1040B00012CF20E030E04AE754E4C701B6010E9485
:1040C000A52587FD11C010E21093360320E030E0F3
:1040D000A901C301B2010E94F22387FF02C086E159
:1040E000FDCE10933703FCCE20E030E048EC52E4E4
:1040F000C701B6010E94A52587FD14C010E21093E8
:10410000360320E030E0A901C301B2010E94F2238E
:1041100087FF05C086E18093370380E3E2CE1093EA
:104120003703FBCF20E030E040E251E4C701B601A5
:104130000E94A52510E210933603109337031093C5
:1041400038031093390387FD0EC020E030E0A90149
:10415000C301B2010E94F22387FF02C08DE2C7CEE5
:1041600010933A03C6CE10933A0320E030E0A90141
:10417000C301B2010E94F22387FF02C08DE2BACED2
:1041800010933B03B9CEE0528BE090E0EA3128F483
:10419000F0E0EA5FFE4F808190E020EC289F8001F4
:1041A000299F100D11243AE2E32E33E0F32E20E292
:1041B00046E068E082E00E94B008CBCEE0528BE09F
:1041C00090E0EA3128F4F0E0EA5FFE4F808190E071
:1041D00020EC289F8001299F100D11248AE2E82EEF
:1041E00083E0F82E20E246E060E582E00E94B0081D
:1041F000FBCEEF920F931F93CF93DF93E80134E050
:1042000047FD34E1042E000C550B57FF03C05195B8
:1042100041955109E32E022F242FAE010E94172150
:10422000CE01DF91CF911F910F91EF900895A9E0FA
:10423000B0E0EDE1F1E20C9454236A01F22EB02ECD
:10424000102FFBE3AF2EA01608F41BE31F5F012F16
:1042500027E0AE014F5F5F4F0E947622BC0189814B
:10426000982F9970913009F43FC09BE2E1FC04C0A3
:104270009E2D9170E0FC3AC05E2D5071E82FE870E1
:1042800083FF46C084E0911101C083E0EF2DE81B5D
:104290008F1508F0E0E0D6018E2F20E2552351F172
:1042A000992329F0D6019C93C60101966C019601D1
:1042B0002D5F3F4FE2FE24C08EE4D6018C9391E443
:1042C00011969C93119712968C93D9018E2F90E2A0
:1042D00081111BC0E20FF32FF11D10828EEF9FEFB3
:1042E0002996ECE00C9470239DE2C6CF90E2C4CFF7
:1042F0002D9381508111FCCFCE0ED11CE0E0D0CFA8
:104300008EE6D6018C9391E6DBCF9D938150E0CF72
:10431000482F447082FF3DC084E0911101C083E0CA
:104320008F1510F4EF2DE81BD6018E2F20E25523B8
:1043300009F1992329F0D6019C93C60101966C01DD
:1043400096012D5F3F4FE2FE1BC089E4D6018C939E
:104350008EE411968C93119786E412968C93D90172
:104360008E2F90E2882309F4B5CF9D938150FACF28
:104370002D9381508111FCCFCE0ED11CE0E0D9CF1E
:1043800089E6D6018C938EE611968C93119786E67A
:10439000E4CF9B0177FF02C030E020E0A1E0B0E075
:1043A000911102C0B0E0A0E0F9013196AE0FBF1F3D
:1043B0008B2C912CBB2009F461C05401EFEFAE1A95
:1043C000BE0AAA0DBB1DFA161B0619F014F04F2DDC
:1043D0004A1B511188C0E3FC59C07601A42FB0E2FA
:1043E000A1114FC0C40ED11C992309F45BC040E059
:1043F000D6011196F60190836D01552309F448C04A
:10440000012F060F9A81582F507184FF03C09133FA
:1044100009F4015010160CF047C0093008F008E00C
:10442000EEE2FE2E5B01A01AB10885019194819401
:1044300091082F3F320729F4D601FC92F6013196FC
:104440006F016217730794F1021713077CF5DB0104
:10445000A21BB30BAA24A394B12CAC0EBD1EAA0DB3
:10446000BB1D11968C9121503109D601119628154A
:104470003905F4F0F60180836D01DBCFB12CA12C5E
:10448000A0CFF701B1937F01A150AACF9111B0CF76
:10449000D601942F50E302C05D9391509111FCCF4F
:1044A000C40ED11C40E0ACCF01E0BACF80E3DBCF3B
:1044B0006217730731F4963388F4953311F455235A
:1044C00069F0F6018083FD01842F90E2811108C01C
:1044D000A40FB11D1C9290E080E002CF81E3F1CFE8
:1044E00091938150F3CF911183CF8ACF283008F078
:1044F00027E03327DA01990F311D87FD916000967F
:104500006105710539F432602E5F3D9330E32A95E1
:10451000E1F708959F3F30F080387105610509F09B
:104520003C5F3C5F3D93913008F08068911DDF93C4
:10453000CF931F930F93FF92EF92192F987F969529
:10454000E92F96959695E90FFF27EC5BFE4F99278B
:104550003327EE24FF24A701E70105900894079470
:1045600028F4360FE71EF81E491F511D660F771FEE
:10457000881F991F0694A1F70590079428F4E70E69
:10458000F81E491F561FC11D770F881F991F661FF0
:104590000694A1F70590079428F4F80E491F561FBA
:1045A000C71FD11D880F991F661F771F0694A1F79B
:1045B0000590079420F4490F561FC71FD81F990F65
:1045C000661F771F881F0694A9F7849110951770AE
:1045D00041F0D695C79557954795F794E7941A9566
:1045E000C1F7EAEEF0E06894159015913591659168
:1045F000959105907FE27395E118F10A430B560BF4
:10460000C90BD009C0F7E10CF11E431F561FC91F8B
:10461000D01D7EF4703311F48A95E6CFE8940150F2
:1046200030F0080F0AF40027021708F4202F239512
:10463000022F7A3328F079E37D932A95E9F710C0A9
:104640007D932A9589F606949795679537951795E2
:104650001794E118F10A430B560BC90BD00998F0D7
:1046600023957E9173957A3308F070E37C93201341
:10467000B8F77E9170617D9330F0839571E37D93FF
:1046800070E32A95E1F71124EF90FF900F911F91AD
:10469000CF91DF91992787FD909508952F923F92B2
:1046A0004F925F926F927F928F929F92AF92BF9242
:1046B000CF92DF92EF92FF920F931F93CF93DF93EE
:1046C000CDB7DEB7CA1BDB0B0FB6F894DEBF0FBE4B
:1046D000CDBF09942A88398848885F846E847D8498
:1046E0008C849B84AA84B984C884DF80EE80FD809A
:1046F0000C811B81AA81B981CE0FD11D0FB6F89410
:10470000DEBF0FBECDBFED0108955058BB27AA27CD
:104710000E949D230C946B250E945D2538F00E9419
:10472000642520F039F49F3F19F426F40C944A25AF
:104730000EF4E095E7FB0C944425E92F0E947C25BC
:1047400058F3BA17620773078407950720F079F4C6
:10475000A6F50C949E250EF4E0950B2EBA2FA02DF5
:104760000B01B90190010C01CA01A0011124FF271E
:10477000591B99F0593F50F4503E68F11A16F04019
:10478000A22F232F342F4427585FF3CF4695379518
:104790002795A795F0405395C9F77EF41F16BA0BDD
:1047A000620B730B840BBAF09150A1F0FF0FBB1F8B
:1047B000661F771F881FC2F70EC0BA0F621F731FD4
:1047C000841F48F4879577956795B795F7959E3F31
:1047D00008F0B0CF9395880F08F09927EE0F9795C2
:1047E000879508950E94202508F481E008950E948D
:1047F0000B240C946B250E94642558F00E945D25C3
:1048000040F029F45F3F29F00C94442551110C9499
:104810009F250C944A250E947C2568F39923B1F3C7
:10482000552391F3951B550BBB27AA2762177307D6
:10483000840738F09F5F5F4F220F331F441FAA1F6A
:10484000A9F335D00E2E3AF0E0E832D09150504026
:10485000E695001CCAF72BD0FE2F29D0660F771FD4
:10486000881FBB1F261737074807AB07B0E809F0BA
:10487000BB0B802DBF01FF2793585F4F3AF09E3F3F
:10488000510578F00C9444250C949F255F3FE4F388
:10489000983ED4F3869577956795B795F7959F5F82
:1048A000C9F7880F911D9695879597F90895E1E0CE
:1048B000660F771F881FBB1F621773078407BA072D
:1048C00020F0621B730B840BBA0BEE1F88F7E09588
:1048D00008950E9470246894B1110C949F25089546
:1048E0000E94842588F09F5798F0B92F9927B751D7
:1048F000B0F0E1F0660F771F881F991F1AF0BA9584
:10490000C9F714C0B13091F00E949E25B1E008951E
:104910000C949E25672F782F8827B85F39F0B93F10
:10492000CCF3869577956795B395D9F73EF4909536
:104930008095709561957F4F8F4F9F4F089597FB9E
:1049400016F40E944D250C94E324E89409C097FBCB
:104950003EF490958095709561957F4F8F4F9F4F56
:104960009923A9F0F92F96E9BB279395F69587959A
:1049700077956795B795F111F8CFFAF4BB0F11F45D
:1049800060FF1BC06F5F7F4F8F4F9F4F16C0882304
:1049900011F096E911C0772321F09EE8872F762F3A
:1049A00005C0662371F096E8862F70E060E02AF07B
:1049B0009A95660F771F881FDAF7880F9695879567
:1049C00097F90895E894F92F96EBFF2381F01216DA
:1049D00013061406440B9395F6958795779567957E
:1049E00057954040FF23B9F71BC0992708958823A6
:1049F00051F49850D2F7872B762F652F542F432FE1
:104A0000322F20E0B1F3121613061406440B88234C
:104A10003AF09A95440F551F661F771F881FCAF7F3
:104A200055234AF4440F551F11F460FF04C06F5F13
:104A30007F4F8F4F9F4F880F9695879597F90895D1
:104A4000990F0008550FAA0BE0E8FEEF161617069F
:104A5000E807F907C0F012161306E407F50798F007
:104A6000621B730B840B950B39F40A2661F0232B20
:104A7000242B252B21F408950A2609F4A140A6959C
:104A80008FEF811D811D089597F99F6780E870E081
:104A900060E008959FEF80EC089590958095709563
:104AA000609550954095309521953F4F4F4F5F4F02
:104AB0006F4F7F4F8F4F9F4F089500240A94161613
:104AC000170618060906089500240A9412161306FC
:104AD000140605060895092E0394000C11F488238A
:104AE00052F0BB0F40F4BF2B11F460FF04C06F5FA6
:104AF0007F4F8F4F9F4F089557FD9058440F551F7C
:104B000059F05F3F71F04795880F97FB991F61F04F
:104B10009F3F79F087950895121613061406551FC6
:104B2000F2CF4695F1DF08C0161617061806991F32
:104B3000F1CF86957105610508940895E894BB2727
:104B400066277727CB0197F908950E94202508F45E
:104B50008FEF08950E94BD250C946B250E945D2562
:104B600038F00E94642520F0952311F00C94442520
:104B70000C944A2511240C949F250E947C2570F3E7
:104B8000959FC1F3950F50E0551F629FF001729FF2
:104B9000BB27F00DB11D639FAA27F00DB11DAA1F01
:104BA000649F6627B00DA11D661F829F2227B00D4E
:104BB000A11D621F739FB00DA11D621F839FA00DD9
:104BC000611D221F749F3327A00D611D231F849F29
:104BD000600D211D822F762F6A2F11249F57504080
:104BE0009AF0F1F088234AF0EE0FFF1FBB1F661FFB
:104BF000771F881F91505040A9F79E3F510580F0C4
:104C00000C9444250C949F255F3FE4F3983ED4F325
:104C1000869577956795B795F795E7959F5FC1F767
:104C2000FE2B880F911D9695879597F90895FA01A7
:104C3000EE0FFF1F309621053105A1F161157105B9
:104C400061F48038BFE39B0749F16894903881058F
:104C500061F08038BFEF9B0741F099234AF5FF3F91
:104C6000E1053105210519F1E8940894E795D9018A
:104C7000AA2329F4AB2FBE2FF85FD0F310C0FF5F3B
:104C800070F4A695E0F7F73950F019F0FF3A38F4D0
:104C90009F779F930DD00F9007FC9058089546F092
:104CA0000C944A2560E070E080E89FE308954FE7A8
:104CB0009F775F934F933F932F930E9417272F91D6
:104CC0003F914F915F910E94AA250C9474260E94F7
:104CD0002025880B990B089529F416F00C9444258F
:104CE0000C949E250C944A250E948425A8F396389E
:104CF000A0F707F80F92E8942BE33AEA48EB5FE756
:104D00000E94C0250F920F920F924DB75EB70F927F
:104D10000E945F27E8E6F0E00E94A6264F915F918F
:104D2000EF91FF91E595EE1FFF1F49F0FE57E068F8
:104D30004427EE0F441FFA95E1F74195550B0E9469
:104D4000D9260F9007FE0C94CD260895DF93CF93BC
:104D50001F930F93FF92EF92DF927B018C01689477
:104D600006C0DA2EEF010E94BD25FE01E894A59150
:104D70002591359145915591A6F3EF010E949D2310
:104D8000FE019701A801DA9469F7DF90EF90FF9098
:104D90000F911F91CF91DF9108959B01AC0160E0CD
:104DA00070E080E89FE30C94F7230C9444250C9466
:104DB00093270E948425D8F39923C9F3940F511D9A
:104DC000A3F39150504094F059F0882332F0660FCD
:104DD000771F881F91505040C1F79E3F51052CF717
:104DE000880F911D9695879597F908955F3FACF0D0
:104DF000983E9CF0BB27869577956795B79508F404
:104E0000B1609395C1F7BB0F58F711F460FFE8CF7D
:104E10006F5F7F4F8F4F9F4FE3CF0C949F2516F00E
:104E20000C9493270C944A2568940C9444250E9472
:104E30008425A8F39923C1F3AEF3DF93CF931F9397
:104E40000F93FF92C92FDD2788232AF02197660F41
:104E5000771F881FDAF720E030E040E85FEB9FE340
:104E6000883920F0803E38F021968F770E94862383
:104E7000E0E9F0E004C00E948623EDEBF0E00E9440
:104E8000A6268B01BE01EC01FB2E6F5771097595AB
:104E9000771F880B990B0E94A72428E132E741E392
:104EA0005FE30E94BD25AF2D9801AE01FF900F91E9
:104EB0001F91CF91DF910E949D230C946B25FA01E5
:104EC000DC01AA0FBB1F9B01AC01BF5728F42227AE
:104ED00033274427507820C0B75190F4AB2F0024DB
:104EE000469537952795011CA395D2F3002071F0C4
:104EF000220F331F441FB395DAF30ED00C94852391
:104F000061307105A0E88A07B94630F49B01AC0115
:104F10006627772788279078309621F02083318381
:104F20004283538308959F3F31F0915020F4879539
:104F300077956795B795880F911D9695879597F901
:104F40000895DB018F939F930E94D327BF91AF9168
:104F5000A29F800D911DA39F900DB29F900D1124D3
:104F60000895A1E21A2EAA1BBB1BFD010DC0AA1FAA
:104F7000BB1FEE1FFF1FA217B307E407F50720F0C2
:104F8000A21BB30BE40BF50B661F771F881F991F3D
:104F90001A9469F760957095809590959B01AC0186
:104FA000BD01CF0108950E94D628A59F900DB49F02
:104FB000900DA49F800D911D11240895DF93CF9330
:104FC0001F930F939A9DF02D219FF00D8B9DF00D57
:104FD0008A9DE02DF10D039FF00D029FE00DF11D64
:104FE0004E9DE00DF11D5E9DF00D4F9DF00D7F93E8
:104FF0006F93BF92AF925F934F93D5010E94D628D3
:105000008B01AC01D7010E94D628EB01E80FF91FF4
:10501000D6010E942D282F913F91D6010E94D628BB
:10502000C60FD71FE81FF91FAF91BF910E942D280F
:105030002F913F910E94D628C60FD71FE81FF91F56
:10504000D6010E94D628E60FF71F9801BE01CF01B6
:105050000F911F91CF91DF9108950E94D628460F9E
:10506000571FC81FD91F08F43196089597FB57FFA3
:105070000C9446289F938F930E9446286E1B7F0BAB
:10508000AF91BF918A0B9B0B0895E894DF93CF9368
:10509000FC01DB010E94D6287F936F93E9019A01FE
:1050A000AC01BF93AF933F932F93DF010E94D628AB
:1050B00026F46C1B7D0B820B930B9E01EB01FC0114
:1050C0000E942D28AF91BF912F913F910E942D28D2
:1050D000BE01CF01F9012F913F91CF91DF9108954A
:1050E000002E083090F0982F872F762F652F542FA1
:1050F000432F322F22270850F4CF220F331F441F93
:10510000551F661F771F881F991F0A95B2F7002D3C
:10511000089597FD1094002E083098F00850232F22
:10512000342F452F562F672F782F892F912DF4CFAD
:1051300015949795879577956795579547953795E2
:1051400027950A95AAF71124002D08952A0D3B1DD5
:105150004C1D5D1D6E1D7F1D801F911F0895002435
:10516000A7FD00942A0F301D401D501D601D701DAD
:10517000801D901D08952A193B094C095D096E098F
:105180007F09800B910B08950024A7FD00942A1736
:1051900030054005500560057005800590050895AF
:1051A000EE0FFF1F0590F491E02D0994A29FB0012E
:1051B000B39FC001A39F700D811D1124911DB29F4B
:1051C000700D811D1124911D08950F931F93CF938E
:1051D000DF938230910510F482E090E0E0911904B1
:1051E000F0911A0430E020E0B0E0A0E0309799F4AC
:1051F0002115310509F44AC0281B390B243031052B
:10520000D8F58A819B816115710589F1FB01938332
:105210008283FE0111C040815181028113814817B0
:105220005907E0F04817590799F4109761F0129662
:105230000C93129713961C933296CF01DF91CF9166
:105240001F910F9108950093190410931A04F4CF3D
:105250002115310551F04217530738F0A901DB0140
:105260009A01BD01DF01F801C1CFEF01F9CF9093A1
:105270001A0480931904CDCFFE01E20FF31F81932E
:1052800091932250310939832883D7CF2091170475
:1052900030911804232B41F4209102013091030135
:1052A00030931804209317042091000130910101DC
:1052B0002115310541F42DB73EB7409104015091BD
:1052C0000501241B350BE0911704F0911804E21737
:1052D000F307A0F42E1B3F0B2817390778F0AC0119
:1052E0004E5F5F4F2417350748F04E0F5F1F5093F6
:1052F000180440931704819391939FCFF0E0E0E06E
:105300009CCFCF93DF930097E9F0FC013297138293
:105310001282A0911904B0911A04ED0130E020E04E
:105320001097A1F420813181820F931F20911704DF
:10533000309118042817390709F061C0F093180458
:10534000E0931704DF91CF910895EA01CE17DF07AC
:10535000E8F54A815B819E0141155105B1F7E901EC
:10536000FB83EA8349915991C40FD51FEC17FD07C0
:1053700061F4808191810296840F951FE9019983E0
:105380008883828193819B838A83F0E0E0E0129698
:105390008D919C9113970097B9F52D913C911197A0
:1053A000CD010296820F931F2091170430911804AB
:1053B0002817390739F6309751F510921A041092D0
:1053C0001904B0931804A0931704BCCFD383C283ED
:1053D00040815181840F951FC817D90761F44E5F32
:1053E0005F4F88819981480F591F518340838A817B
:1053F0009B81938382832115310509F0B0CFF0930F
:105400001A04E09319049ECFFD01DC01C0CF138282
:105410001282D7CFF894FFCF00001B0480000A0B44
:105420000B0B0B0B0B0B0B0B0B0B0C0B0D0B0001DE
:10543000020304050607080900000000AF0A0F0A6E
:105440003C0A170B6D0A4B0A5F0A000000001A1095
:10545000ED0F4910C30FE60FD30FC40F6E616E003E
:10546000696E66006F7666000D0A004661696C65BC
:105470006420746F20726561642063656C6C2076B3
:105480006F6C746167652C20636865636B20626173
:10549000747465727920697320636F6E6E656374CE
:0654A000656421002000FC
:107800000C94343C0C94513C0C94513C0C94513CE1
:107810000C94513C0C94513C0C94513C0C94513CB4
:107820000C94513C0C94513C0C94513C0C94513CA4
:107830000C94513C0C94513C0C94513C0C94513C94
:107840000C94513C0C94513C0C94513C0C94513C84
:107850000C94513C0C94513C0C94513C0C94513C74
:107860000C94513C0C94513C11241FBECFEFD8E036
:10787000DEBFCDBF11E0A0E0B1E0ECE9FFE702C060
:1078800005900D92A230B107D9F712E0A2E0B1E065
:1078900001C01D92AD30B107E1F70E942D3D0C945F
:1078A000CC3F0C94003C982F959595959595959582
:1078B000905D8F708A307CF0282F295A8091C0000B
:1078C00085FFFCCF9093C6008091C00085FFFCCF60
:1078D0002093C6000895282F205DF0CF982F809127
:1078E000C00085FFFCCF9093C6000895EF92FF92F1
:1078F0000F931F93EE24FF2487018091C00087FD22
:1079000017C00894E11CF11C011D111D81E4E8164B
:1079100082E4F8068FE0080780E0180770F3E09132
:107920000401F091050109958091C00087FFE9CF1E
:107930008091C6001F910F91FF90EF9008950E94D3
:10794000763C982F8091C00085FFFCCF9093C600B5
:1079500091362CF490330CF09053892F089597555D
:10796000892F08951F930E949F3C182F0E949F3CCF
:107970001295107F810F1F9108951F93182F882350
:1079800021F00E94763C1150E1F71F9108951F935A
:10799000182F0E94763C803249F0809103018F5F5E
:1079A000809303018530C1F01F9108958091C0003C
:1079B00085FFFCCF84E18093C6008091C00085FFE5
:1079C000FCCF1093C6008091C00085FFFCCF80E102
:1079D0008093C6001F910895E0910401F091050184
:1079E00009951F9108950E94763C803241F0809164
:1079F00003018F5F80930301853081F008958091AA
:107A0000C00085FFFCCF84E18093C6008091C00058
:107A100085FFFCCF80E18093C6000895E0910401CA
:107A2000F09105010995089540E951E08823A1F0FE
:107A30002D9A28EE33E0FA013197F1F721503040CA
:107A4000D1F72D9828EE33E0FA013197F1F7215064
:107A50003040D1F7815061F708953F924F925F9285
:107A60006F927F928F929F92AF92BF92CF92DF924E
:107A7000EF92FF920F931F93CF93DF93000080E16B
:107A80008093C4001092C50088E18093C10086E015
:107A90008093C2005098589A259A81E00E94143D24
:107AA00024E1F22E9EE1E92E85E9D82E0FE0C02ECA
:107AB00010E1B12EAA24A394B1E49B2EA6E58A2E50
:107AC000F2E57F2EE0E26E2E79E4572E63E5462E36
:107AD00050E5352E0E94763C8033B1F18133B9F107
:107AE000803409F46FC0813409F476C0823409F41B
:107AF00085C0853409F488C0803531F1823521F1A3
:107B0000813511F1853509F485C0863509F48DC0BC
:107B1000843609F496C0843709F403C1853709F423
:107B200072C1863709F466C0809103018F5F80932C
:107B30000301853079F6E0910401F0910501099582
:107B40000E94763C803351F60E94F33CC3CF0E94E2
:107B5000763C803249F78091C00085FFFCCFF092DF
:107B6000C6008091C00085FFFCCF9092C600809136
:107B7000C00085FFFCCF8092C6008091C00085FFC9
:107B8000FCCF7092C6008091C00085FFFCCF609250
:107B9000C6008091C00085FFFCCF5092C600809146
:107BA000C00085FFFCCF4092C6008091C00085FFD9
:107BB000FCCF3092C6008091C00085FFFCCFB09210
:107BC000C60088CF0E94763C863808F4BDCF0E945C
:107BD000763C0E94F33C7ECF0E94763C803809F4CC
:107BE0009CC0813809F40BC1823809F43CC1883942
:107BF00009F48FC080E00E94C73C6CCF84E10E94F2
:107C0000BD3C0E94F33C66CF85E00E94BD3C0E94D3
:107C1000F33C60CF0E94763C809306010E94763C44
:107C2000809307010E94F33C55CF0E94763C80333D
:107C300009F41DC183E00E94BD3C80E00E94C73C66
:107C400049CF0E94763C809309020E94763C809343
:107C5000080280910C028E7F80930C020E94763C79
:107C6000853409F415C18091080290910902892B8D
:107C700089F000E010E00E94763CF801E85FFE4FDA
:107C800080830F5F1F4F80910802909109020817AF
:107C9000190788F30E94763C803209F045CF809125
:107CA0000C0280FF01C16091060170910701660F0F
:107CB000771F7093070160930601A0910802B091AD
:107CC00009021097C9F0E8E0F1E09B01AD014E0F09
:107CD0005F1FF999FECF32BD21BD819180BDFA9A17
:107CE000F99A2F5F3F4FE417F50799F76A0F7B1F4B
:107CF00070930701609306018091C00085FFFCCF5F
:107D0000F092C6008091C00085FFFCCFB092C60003
:107D1000E1CE83E00E94C73CDDCE82E00E94C73CFA
:107D2000D9CE0E94763C809309020E94763C8093D3
:107D300008028091060190910701880F991F909386
:107D40000701809306010E94763C853409F4A6C0A1
:107D500080910C028E7F80930C020E94763C8032D0
:107D600009F0B8CE8091C00085FFFCCFF092C6002C
:107D7000609108027091090261157105B9F140E046
:107D800050E080910C02A82FA170B82FB27011C0E2
:107D9000BB2309F45CC0E0910601F0910701319624
:107DA000F0930701E09306014F5F5F4F46175707B7
:107DB000E8F4AA2369F3F999FECF209106013091E6
:107DC000070132BD21BDF89A90B58091C00085FFB2
:107DD000FCCF9093C6002F5F3F4F30930701209355
:107DE00006014F5F5F4F4617570718F38091C00099
:107DF00085FDE5CE8091C00085FFF8CFE0CE81E023
:107E00000E94C73C67CE0E94763C803209F08CCE3F
:107E10008091C00085FFFCCFF092C6008091C00029
:107E200085FFFCCFE092C6008091C00085FFFCCFAB
